:020000040800F2
:10000000D810002039020008C93E0008B5330008A6
:10001000993B00085D100008354B00080000000007
:10002000000000000000000000000000113F000878
:10003000C314000800000000CD3E0008133F000874
:10004000530200085302000853020008530200083C
:100050005302000853020008C5140008CF1400081A
:10006000D914000853020008530200085302000884
:10007000A9130008530200085302000853020008A5
:1000800053020008530200085302000853020008FC
:1000900053020008530200085302000853020008EC
:1000A00053020008530200085302000853020008DC
:1000B00053020008530200085302000853020008CC
:1000C00053020008530200085302000853020008BC
:1000D000530200085302000853020008F5490008C3
:1000E000530200085302000853020008530200089C
:1000F000530200085302000853020008530200088C
:10010000530200085302000853020008530200087B
:10011000530200085302000853020008530200086B
:10012000530200085302000853020008530200085B
:10013000530200085302000853020008530200084B
:10014000530200085302000853020008530200083B
:10015000530200085302000853020008530200082B
:10016000530200085302000853020008530200081B
:100170005302000853020008530200080000000068
:10018000530200085302000800F002F800F045F89E
:100190000AA090E8000C82448344AAF10107DA45E2
:1001A00001D100F03AF8AFF2090EBAE80F0013F0EF
:1001B000010F18BFFB1A43F001031847E06300006A
:1001C00000640000103A24BF78C878C1FAD85207FA
:1001D00024BF30C830C144BF04680C6070470000C1
:1001E0000023002400250026103A28BF78C1FBD840
:1001F000520728BF30C148BF0B6070471FB506F0DB
:10020000D2F800F027FD04000020002105F020FEB8
:10021000401C60601FBD10B510BD00F0E3FC11462E
:10022000FFF7ECFF05F088F800F00AFD03B4FFF7D4
:10023000F2FF03BC00F012FD09488047094800475F
:10024000FEE7FEE7FEE7FEE7FEE7FEE7FEE7FEE786
:10025000FEE7FEE704480549054A064B70470000E3
:10026000D53F000889010008D80A0020D8100020D6
:10027000D80C0020D80C002053EA020C00F0698052
:100280002DE9F04B4FF00006002B1FBFB3FA83F5AA
:1002900003FA05F424FA05F65E4012BF1643B2FADB
:1002A00082F502FA05F4C5F120051EBF22FA05FC0D
:1002B00044EA0C04203556EA044C4FEA144418BFB3
:1002C000641C4FF000084FF00009904271EB030CE2
:1002D00039D3002919BFB1FA81F701FA07F6B0FA4C
:1002E00080F700FA07F6C7F120071EBF20FA07FCC7
:1002F00046EA0C062037B6FBF4FCA7EB0507103FD7
:1003000007F01F0BCBF120060CFA0BFB2CFA06F6BC
:1003100044BFB3460026202FA4BF5E464FF0000B1B
:100320005BEA060C08BF4FF0010B19EB0B09ABFBA6
:10033000027C48EB0608C01B06FB02CC0BFB03CC7F
:1003400071EB0C01C1E70B46024641464846BDE849
:10035000F08B13B54FF000004FF00001AFF30080B9
:10036000BDE81C40704700000FB400B58DB010A967
:10037000099000910B904FF0FF300A9000200C90F4
:10038000064878440690064878446A4607900F99D4
:1003900009A800F02BFA0DB05DF814FB87040000EB
:1003A0009F0400002DE9FF5F1D464FF0FF3B914683
:1003B0004FF000085F46D5E90146A96901987F1C06
:1003C0008847296A824688470028F6D1BAF1FF3F5C
:1003D0000CD0002E24F4C06419DD600614D5BAF1E7
:1003E0002B0F09D0BAF12D0F0ED103E0584604B0FF
:1003F000BDE8F09F44F48064A96901987F1C884798
:10040000761E8246002E02DDBAF1300F03D0B9F11C
:10041000000F26D032E0A969761E01987F1C44F4B3
:1004200000748847002E824605DDBAF1780F06D0A9
:10043000BAF1580F03D0B9F1000F10D01EE0B9F196
:10044000000F02D0B9F1100F18D1A969761E0198DA
:100450007F1C24F4007488478246102002E00820A4
:1004600000E00A20814609E0A96908FB0908761E18
:1004700001987F1C44F4007488478246002E05DDF5
:100480004946504600F09DF90028EDDAE9690198E7
:100490008847A00502D46FF00100A8E7E00725D146
:1004A000600613D5600502D5C8F1000000E04046A3
:1004B00029680A1D2A600968220501D5087015E01F
:1004C000220701D5088011E008600FE02868011DAF
:1004D00029600068210502D580F8008006E0210728
:1004E00002D5A0F8008001E0C0F8008038467EE721
:1004F0002DE9FF5F4FF00008994614464646916982
:10050000D2E901A7DDF838B001988847054659EAD5
:100510000B0005D009E0A1690198761C88470546C3
:10052000216A284688470028F5D1681C03D05FEA75
:10053000CA7005D015E04FF0FF3004B0BDE8F09F61
:100540002068011D2160D0F800800AE05FEACA70CF
:1005500001D108F8015BA169761C01987F1E8847CC
:100560000546002F1ADD681C18D0B9F1000F0DD018
:10057000E81705EBD060421120F01F0059F8221057
:100580002A1A012090400142E0D107E0BBF1000FA0
:10059000DCD12846216A88470028D7D0E169019834
:1005A0008847BBF1000F07D1002E05DD5FEACA7056
:1005B00002D1002188F80010A068B84203DDBBF129
:1005C000000F03D017B16FF00100B6E73046B4E773
:1005D000032A40F2308010F0030C00F0158011F86F
:1005E000013BBCF1020F624498BF11F801CB00F847
:1005F000013B38BF11F8013BA2F1040298BF00F89B
:1006000001CB38BF00F8013B11F0030300F0258057
:10061000083AC0F0088051F8043B083A51F804CB7E
:10062000A0E80810F5E7121D5CBF51F8043B40F844
:10063000043BAFF30080D20724BF11F8013B11F84F
:1006400001CB48BF11F8012B24BF00F8013B00F893
:1006500001CB48BF00F8012B704710B5203AC0F01D
:100660000B80B1E81850203AA0E81850B1E81850B3
:10067000A0E81850BFF4F5AF5FEA027C24BFB1E8F0
:100680001850A0E8185044BF18C918C0BDE8104061
:100690005FEA827C24BF51F8043B40F8043B08BF6A
:1006A0007047D20728BF31F8023B48BF11F8012B31
:1006B00028BF20F8023B48BF00F8012B70474FF0DD
:1006C00000020429C0F0128010F0030C00F01B801F
:1006D000CCF1040CBCF1020F18BF00F8012BA8BF2D
:1006E00020F8022BA1EB0C0100F00DB85FEAC17CF1
:1006F00024BF00F8012B00F8012B48BF00F8012BA4
:1007000070474FF0000200B51346944696462039D4
:1007100022BFA0E80C50A0E80C50B1F12001BFF4BA
:10072000F7AF090728BFA0E80C5048BF0CC05DF820
:1007300004EB890028BF40F8042B08BF704748BF6E
:1007400020F8022B11F0804F18BF00F8012B7047E2
:1007500010B5044610F0030F08BF11F0030F40F06E
:1007600015804FF0013E121FC0F20E8051F8043B7D
:10077000A3EB0E0C2CEA030C1CEACE1C08BF40F8BD
:10078000043BF0D0A1F1040102F10402521E08DB87
:1007900011F8013B002B00F8013BF7D11146FFF7A0
:1007A0008EFF204610BD70477047704710B500F0AF
:1007B0004DF8006810BD10B5044600F047F804601D
:1007C00010BD3A2800D2303820F02002412A01D34F
:1007D000A2F13700884201D34FF0FF30704700008C
:1007E000026811441378016018467047D1600549CA
:1007F0007944516104497944116200211161114623
:1008000000F032B8EDFFFFFF5B000000426842B12C
:10081000016811F8013B23B1521EC0E900121846CD
:1008200070470121C160881E704742685AB1C36891
:10083000016843B983688B4205D0491E521CC0E948
:100840000012002070474FF0FF307047004870479B
:10085000780A002010B5044600F0EAF90068005D4F
:1008600000F0010010BD00002DE9F34F4FF0000A29
:100870000C4656468DB001200C9001F10C000B90F7
:1008800062690B9801219047051E2DD0252D2CD093
:10089000216A8847C0B162690B9801219047216A9B
:1008A00088470028F7D16269411E0B98904700E005
:1008B000761CA1690D988847216A88470028F7D1DE
:1008C000E1690D988847DBE7A1690D988847A84240
:1008D000074601D1761CD3E7E1690D9888477F1C54
:1008E00002D1BAF1000F6FD06BE162690B9800275B
:1008F0003D46394690472A2804D162690B98012168
:1009000090470125DFF8D08262690B98012190475A
:10091000A0F130010A290AD24745E5DC07EB87013F
:1009200000EB4107303FDFD445F01005ECE7E90666
:1009300001D46FF000476C280AD04C2814D06828E6
:1009400015D06A280DD074281CD07A281AD01DE042
:1009500062690B98012190476C2802D045F004058C
:1009600014E045F002050DE045F020050AE062695B
:100970000B9801219047682802D045F0080505E052
:1009800045F4006562690B9801219047C4E901575D
:1009900065283DD019DC58287AD00CDC452837D0A2
:1009A00004DC252826D041289ED131E046282FD0CE
:1009B000472899D12CE05B2877D0612828D063287C
:1009C0007CD0642823D15AE0F6E06F2848D008DCB8
:1009D00066281DD067281BD0692821D06E2816D123
:1009E00027E0702845D0732868D0752847D078282C
:1009F0000DD14DE0A1690D988847252805463FF4A3
:100A000069AFE1690D9888476D1C3FF46AAFD8E083
:100A10000D9923466A466FF00100AFF30080C5E0F0
:100A200045F0400023464FF000026060A80736D42E
:100A30003EE0E8077FF447AF2068011D21600068B1
:100A4000290501D506701BE7290701D5068017E7A0
:100A5000A90703D5F117C0E9006111E706600FE7A8
:100A600045F0400023464FF008026060A80716D406
:100A70001EE040F60E0125EA0100606016E045F038
:100A8000400023464FF00A026060A80707D40FE039
:100A900045F040006060A80708D5234610220D9954
:100AA0006FF00100AFF3008080E007E010222346E2
:100AB0000D996FF00100FFF775FC77E04FF000092A
:100AC00063284F46C8464B46CB4602D05B2806D02B
:100AD00038E0E80601D40120A060012732E0626915
:100AE000D4F80CB00B98012190475E2807D14FF045
:100AF000010949466269D4F80CB00B989047216906
:100B000039B900210A4603AB43F82120491C0829C2
:100B1000FADBD8B3216949B308F1010862690B987F
:100B2000012190475D28F4D1B9F1000F09D00020D0
:100B300003A951F82020D24341F82020401C082866
:100B4000F7DB03AB2069002820794FEA40701ED004
:100B50005B462246CDF80080CDE901970D9900282B
:100B60006FF0010020DAAFF300801FE0C11703AA85
:100B700000EBD1614B1121F01F0102EB8302411AFE
:100B800013680120884003431360C7E719E00D99FB
:100B9000224600286FF00100009702DAAFF30080D0
:100BA00004E0FFF7A5FC01E0AFF3008000280ADABB
:100BB000401C06D10C9820B14FF0FF300FB0BDE8BB
:100BC000F08F5046FAE7E90701D10AF1010A06441D
:100BD00000200C9054E60000CCCCCC0C00487047B0
:100BE000780A00207546FFF7F9FFAE460500694612
:100BF000534620F00700854618B020B5FFF72AFBC2
:100C0000BDE820404FF000064FF000074FF000080D
:100C10004FF0000B21F00701AC46ACE8C009ACE88E
:100C2000C009ACE8C009ACE8C0098D4670470000B7
:100C300010B500F00FF8001D10BD00BF15520000E8
:100C400010B50446AFF300802046BDE81040FFF722
:100C5000EDBA000000487047980A002001491820AA
:100C6000ABBEFEE7260002004FF0013C50F8042B1B
:100C700051F8043B9A4221D1A2EB0C03934313EAAF
:100C8000CC1317D150F8042B51F8043B9A4215D1DC
:100C9000A2EB0C03934313EACC130BD150F8042BB3
:100CA00051F8043B9A4209D1A2EB0C03934313EA97
:100CB000CC13DBD04FF00000704700BFD01A01BA50
:100CC000B1FA81F101F0180122FA01F0CB40C1F133
:100CD0002001DBB2C0B2C01A2CFA01F3D11A914341
:100CE00011EAC311E6D1704770470000002011E0FF
:100CF00000210A4A02EB00121170084A02EB0012AE
:100D00005160064A02EB00121172044A02EB001213
:100D1000D160401C0428EBDB70470000FC0300207E
:100D20000848007850B90748007C38B9054890F861
:100D3000200018B9034890F8300008B1012070472E
:100D40000020FCE7FC03002010B5044602F034FB51
:100D500018B1204602F036FB1EE0012C04D0022C14
:100D60000CD0042C17D10FE001210C4880F828107A
:100D700080F83810002000F017F90CE00120074936
:100D8000087200F011F906E0012104480176022002
:100D900000F00AF900BF00BF10BD0000FC030020F6
:100DA0003EB500F01BFF04466A4601A902A802F006
:100DB000F5FE2148007848B11F48007A30B91E4836
:100DC0004068A04202D8012000F0EEF81A48007CEA
:100DD00048B11948007E30B917484069A04202D88E
:100DE000022000F0E1F8144890F8200018B91248E9
:100DF00090F83000F0B1104890F82800D0B90E48B3
:100E000090F83800B0B900250B4890F8200018B1D0
:100E10000948406AA04207D9074890F8300020B13D
:100E20000548406BA04200D8012515B1002000F014
:100E3000BBF800BF3EBD0000FC03002010B5002140
:100E4000074803F045F80021064803F041F8002167
:100E5000054803F03DF80421034803F039F810BDBC
:100E60005C000020A4000020EC00002070B50546C6
:100E70000C4625B1012D17D0022D2AD11FE0012CDF
:100E800001D1012000E0002002464021124800F07C
:100E90009FFE012C01D0012000E0002002468021AD
:100EA0000D4800F095FE14E0012C01D1012000E076
:100EB000002002461021084800F08AFE09E00CB923
:100EC000012000E0002002462021034800F080FEBF
:100ED00000BF00BF70BD0000000402402DE9F041DA
:100EE00007460C4600F07AFE05466FB3012F02D08C
:100EF000022F4DD113E0012027490870002008720D
:100F0000281948600021254801F030FE2348006878
:100F1000C06A401C400821490968486338E0012044
:100F20001D49087400211C480176291941610021DE
:100F30001B4801F01BFE1A480068C06A401C4008AC
:100F400017490968486323E00120134981F83000FC
:100F500081F820000021104880F8381080F828100F
:100F600029194163416200210E4801F0FFFD04216F
:100F70000C4801F0FBFD0B480068C06A401CC0F340
:100F80004F0608480068466306480068866300BF4D
:100F900000BFBDE8F0810000FC0300205C000020E1
:100FA000A4000020EC00002010B50446B4B1012CD0
:100FB00002D0022C27D108E00021144801F05CFE89
:100FC00000201349087208701DE00021114801F04B
:100FD00053FE00210E480176017414E000210E48F2
:100FE00001F04AFE04210C4801F046FE00200849A9
:100FF00081F8300081F820000021054880F8381081
:1010000080F8281000BF00BF10BD00005C00002069
:10101000FC030020A4000020EC00002070B5044672
:101020000D4624B1012C07D0022C0FD109E029462E
:10103000074803F0FDFC09E02946064803F0F8FCE8
:1010400004E02946044803F0F3FC00BF00BF70BD74
:10105000EC0000205C000020A400002000BFFEE7A0
:1010600030B52DED0C8B83B004461CB194F84E00C6
:10107000042803DA03B0BDEC0C8B30BDB4F9420098
:10108000B4F93E10401A00EE100AB8EEC09AB4F956
:101090004410B4F94000081A00EE100AB8EEC08AF5
:1010A0009FED5CAAB5EEC08AF1EE10FA2DDBF1EEF1
:1010B000480AB0EE490A03F06FFD10EE105A2846B8
:1010C00005F000F941EC1D0B9FED530B53EC102B79
:1010D00004F012FF41EC1C0B04F0D0FE41EC1B0BA2
:1010E00004F0D8FE0AEE100A012208214C4800F054
:1010F0006FFD642000F042FC00220821484800F007
:1011000067FD642000F03AFC2FE0F0EE480AB1EEF3
:10111000490A03F041FDB1EE400A10EE105A28468C
:1011200005F0D0F841EC1C0B9FED3B0B53EC102B62
:1011300004F0E2FE41EC1B0B04F0ACFE0AEE100AD8
:10114000002510E001220821354800F041FD64200F
:1011500000F014FC00220821314800F039FD642021
:1011600000F00CFC6D1C032DECDB2E49D1E90801CD
:10117000CDE90101B0EE4A0A03F036FEF0EE409AE6
:10118000B0EE4A0A03F0D8FEF0EE408A00203CE0C0
:10119000244B53F8301003EBC0035A68019BCB1A61
:1011A00002EE103AB8EEC22AB0EE420A029BD31AFF
:1011B00002EE103AB8EEC22AF0EE420A20EE292AD8
:1011C00000EEE82AB0EE421A20EE282A00EEA92A04
:1011D000F0EE421A9DED012AB8EEC22A32EE012A43
:1011E000BDEEC22A12EE103A0F4D45F830309DED9B
:1011F000022AB8EEC22A32EE212ABDEEC22A2B46BE
:1012000003EBC00383ED012A401C0928C0DB00BFAB
:1012100030E7000000000000182D4454FB21094075
:101220000008024084640008E00900200146002014
:1012300008E00A56521C22B9054A1256521C02B145
:101240007047401C0928F4DB4FF0FF30F8E700003E
:10125000CC0900200146002007E00A5C22B9054ABB
:101260001256521C02B97047401C0928F5DB4FF09A
:10127000FF30F8E7CC0900202DE9F0414FF000479E
:10128000FE17002416E00E48005D90B9FF200C49BF
:1012900008556FF00043C2070021084604F080FCA7
:1012A0000546002006490855BD4201DD26462F4669
:1012B00000BF641C092CE6DB3046BDE8F08100006D
:1012C000CC090020002808DB132806DA29B1034ADC
:1012D00002EBC0030CCBC1E900237047E0090020FA
:1012E00010B5002003E00021054A1154401C1328CA
:1012F000F9DB982203490448FFF7AFF910BD00005D
:10130000CC09002084640008E009002030B50246C2
:101310000B46002400210FE050560B4D6D56A8429D
:1013200009D0505C28B908484056984201D1641C45
:1013300001E0002030BD491C0929EDDB012C01D161
:101340000120F7E70020F5E7CC0900202DE9F04166
:1013500004460F46FFF7C4FF00251DE005EB4502DC
:1013600004EB4202B2F9021005EB450234F9120017
:1013700003F07CFF0646701C68B105EB450004EBEA
:1013800040000079B84203D1FF200649885502E0A9
:101390000120044988556D1C94F83C00A842DDDC0E
:1013A000BDE8F081CC09002010B5024800F006F934
:1013B00010BD00007C010020014608781038182379
:1013C000B0FBF3F20848805CC865032A05D90868B9
:1013D0006FF30900001D886503E008686FF30900DA
:1013E0008865886D70470000BA63000801460020D8
:1013F0008A6A8B69CBB932B1012A0DD0022A03D097
:10140000032A10D10EE000BFCB6A03F08073B3F162
:10141000807F00D1012007E0CB6AB3F1C07F00D10B
:10142000012001E000E000BF34E08B69B3F5005F0C
:101430001AD132B1012A07D0022A03D0032A11D1CE
:101440000AE000BF01200EE0CB6A03F08073B3F125
:10145000807F00D1012006E0CB6AB3F1C07F00D1CC
:10146000012000E000BF15E032B1012A05D0022AB8
:1014700004D0032A0CD103E000BF00BF012008E024
:10148000CB6A03F08073B3F1807F00D1012000E0CC
:1014900000BF00BF704730B50468246824F480247E
:1014A00005682C60046863608468402C04D104687B
:1014B000A2600468E16003E00468A1600468E2607F
:1014C00030BD704710B5012000F072FA10BD10B5A4
:1014D000022000F06DFA10BD10B5042000F068FA8B
:1014E00010BD72B600BFFEE770B50446A56D00F0F2
:1014F00075FB064694F83500022808D08020606508
:1015000000BF002084F8340000BF012070BD2068B7
:10151000006820F01600216808602068406920F00B
:10152000800021684861206C08B9A06C28B120684F
:10153000006820F00800216808602068006820F03A
:1015400001002168086010E000F048FB801B0528BE
:101550000BD920206065032084F8350000BF0020EF
:1015600084F8340000BF0320D0E72068006800F052
:1015700001000028E8D194F85C103F208840A86062
:10158000012084F8350000BF002084F8340000BF3B
:1015900000BFBBE7014691F83500022803D0802048
:1015A000486501207047052081F83500086800680B
:1015B00020F001000A6810600020F3E7F8B5044647
:1015C000002000908C4800684FF41651B0FBF1F7F2
:1015D000A56D2E6894F85C1008208840304098B1C2
:1015E0002068006800F0040070B12068006820F0F6
:1015F00004002168086094F85C1008208840A86006
:10160000606D40F00100606594F85C100120884036
:10161000304068B12068406900F0800040B194F823
:101620005C1001208840A860606D40F00200606599
:1016300094F85C1004208840304068B1206800684D
:1016400000F0020040B194F85C1004208840A860CB
:10165000606D40F00400606594F85C1010208840D4
:10166000304078B32068006800F0080050B394F868
:101670005C1010208840A8602068006800F480207A
:1016800080B12068006800F4002028B9206CC8B13F
:101690002046216C884715E0A06C98B12046A16CCB
:1016A00088470FE02068006800F4807028B920683F
:1016B000006820F0080021680860206C10B1204606
:1016C000216C884794F85C10202088403040002826
:1016D00065D02068006800F0100000285FD094F802
:1016E0005C1020208840A86094F83500052828D197
:1016F0002068006820F016002168086020684069B2
:1017000020F0800021684861206C08B9A06C28B1E5
:101710002068006820F008002168086094F85C10D8
:101720003F208840A860012084F8350000BF0020D9
:1017300084F8340000BF206D10B12046216D884729
:10174000F8BD2068006800F4802080B1206800683F
:1017500000F4002028B9606C10B12046616C884705
:101760001DE0E06BD8B12046E16B884717E02068A8
:10177000006800F4807068B92068006820F01000EC
:1017800021680860012084F8350000BF002084F83B
:10179000340000BFE06B10B12046E16B8847606DFC
:1017A00038B3606D00F00100F0B1052084F8350019
:1017B0002068006820F001002168086000BF0098E0
:1017C000401C0090B84200D905E02068006800F095
:1017D00001000028F3D100BF012084F8350000BFCC
:1017E000002084F8340000BFE06C10B12046E16CAA
:1017F000884700BFA4E70000240000202DE9F04145
:101800000446002500F0EAF9074614B90120BDE8B6
:10181000F081606A00B100BF022084F8350000BF8B
:10182000002084F8340000BF2068006820F0010028
:10183000216808600AE000F0D1F9C01B052805D92D
:1018400020206065032084F83500E0E72068006808
:1018500000F001000028EED120680568214805400D
:10186000D4E901010843E16808432169084361693B
:101870000843A1690843E1690843216A0843054315
:10188000606A042803D1D4E90B01084305432068AA
:1018900005602068456925F00705606A0543606AB0
:1018A00004280DD1A06A0543E06A48B12046FFF73D
:1018B0009DFD28B140206065012084F83500A6E731
:1018C000206845612046FFF777FD064694F85C10D6
:1018D0003F208840B06000206065012084F835001A
:1018E000002094E73F8010F02DE9F04704460D46B4
:1018F00016461F464FF00008D4F8589000BF94F8E1
:101900003400012802D10220BDE8F087012084F8CC
:10191000340000BF94F83500012825D1022084F856
:101920003500002060653B46324629462046FFF7D9
:10193000B2FD94F85C103F208840C9F80800206888
:10194000006840F0160021680860206C28B120680B
:10195000006840F00800216808602068006840F0D6
:1019600001002168086006E000BF002084F8340010
:1019700000BF4FF002084046C6E7000070B50446BD
:1019800000F02CF906462546681C10B10448007882
:10199000054400BF00F022F9801BA842FAD370BDB5
:1019A0002000002010B504462046FFF7CDF910BDF9
:1019B00010B5044604480068204020B10248046085
:1019C0002046FFF7EFFF10BD143C0140F8B502467A
:1019D0000B460025002400200021D6E0012606FA4F
:1019E00001F51E6806EA0504AC4274D11E7906F0C2
:1019F0000306012E04D01E7906F00306022E13D131
:101A000090684F000326BE40B0434F00DE68BE40E2
:101A100030439060506801268E40B0431E79C6F373
:101A200000168E40304350601E7906F00306032EE8
:101A300009D0D0684F000326BE40B0434F009E68D7
:101A4000BE403043D0601E7906F00306022E13D14B
:101A5000CF0802F1200656F827004E07F70E0F2692
:101A6000BE40B0434F07FF0E1E69BE403043CF0853
:101A700002F1200646F8270010684F000326BE40FA
:101A8000B0431E7906F003064F00BE40304310609D
:101A90005E6806F44036002E76D000BF0026009621
:101AA0003C4E366846F480463A4F3E603E463668C5
:101AB00006F48046009600BF00BF374E8F0856F8E8
:101AC00027008E07370F0F26BE40B043334EB24279
:101AD00002D1002624E057E0314EB24201D1012666
:101AE0001EE0304EB24201D1022619E02E4EB24223
:101AF00001D1032614E02D4EB24201D104260FE09D
:101B00002B4EB24201D105260AE02A4EB24201D143
:101B1000062605E0284EB24201D1072600E008263D
:101B20008F073F0FBE4030431B4E8F0846F82700FB
:101B3000224E3068A0435E6806F4801606B120434A
:101B40001E4E3060361D3068A0435E6806F40016F5
:101B500006B12043194E361D3060184E361F3068CE
:101B6000A0435E6806F4003606B12043134E361FCC
:101B70003060361F3068A0435E6806F4803606B1D8
:101B800020430E4E083E3060491C1029FFF426AF5A
:101B9000F8BD00004438024008380140000002400F
:101BA0000004024000080240000C02400010024005
:101BB0000014024000180240001C0240083C014092
:101BC000024613690B400BB1012000E00020704772
:101BD0000AB1816101E00B0483617047014800682C
:101BE0007047000018000020034800680349097886
:101BF00008440149086070471800002020000020B8
:101C000010B50D48006840F400700B4908600846A4
:101C1000006840F4806008600846006840F4807006
:101C20000860032000F0BCF80F2000F007F800F077
:101C30002BF8002010BD0000003C024070B50446A7
:101C40000E4800784FF47A71B1FBF0F00C49096846
:101C5000B1FBF0F5284600F045FC08B1012070BD4D
:101C6000102C07D200222146501E00F05BF80548D8
:101C7000046001E00120F2E70020F0E720000020EE
:101C8000240000201C00002008B500BF00200090A8
:101C90000E48006840F480400C490860084600681F
:101CA00000F48040009000BF00BF00BF0020009003
:101CB000081F006840F08050091F0860084600684F
:101CC00000F08050009000BF00BF08BD44380240C3
:101CD00010B50146084600280BDB00F01F03012267
:101CE0009A40054B440943F82420BFF34F8FBFF3BC
:101CF0006F8F00BF10BD000080E100E00146084684
:101D000000280DDB00BF00BF00F01F0301229A4036
:101D100043099B0003F1E023C3F8002100BF00BF8B
:101D200000BF70472DE9F05F80460D46164600273C
:101D300002F016FF074639462A46334601F00700EF
:101D4000C0F1070ABAF1040F02D94FF0040A01E00A
:101D5000C0F1070AD14600F1040ABAF1070F02D216
:101D60004FF0000A01E0A0F1030AD4464FF0010A47
:101D70000AFA09FAAAF1010A0AEA020A0AFA0CFAAC
:101D80004FF0010B0BFA0CFBABF1010B0BEA030B51
:101D90004AEA0B042146404602F0EAFEBDE8F09F05
:101DA00000BF00F00702064B19684FF6FF03194009
:101DB000044B0B4343EA0221014B196000BF7047FB
:101DC0000CED00E00000FA0570B504460D460CB9B4
:101DD000012070BD5848006800F00700A84209D2F1
:101DE00055490D700846006800F00700A84201D070
:101DF0000120EEE7207800F0020002281DD12078B3
:101E000000F00400042805D14C48006840F4E0507C
:101E10004A490860207800F00800082805D14748A2
:101E2000006840F46040454908604448006820F07C
:101E3000F000A168084341490860207800F00100E3
:101E4000A8B36068012807D13C4808380068C0F38F
:101E50004040B8B90120BCE76068022802D0606841
:101E6000032807D1354808380068C0F3406048B9F6
:101E70000120AEE7314808380068C0F3400008B9D7
:101E80000120A6E72D48006820F0030061680843A0
:101E90002A490860FFF7A2FE064609E0FFF79EFE0A
:101EA000801B41F28831884202D9032091E707E084
:101EB0002248006800F00C006168B0EB810FEDD1A2
:101EC0001D48006800F00700A84209D91A490D70A2
:101ED0000846006800F00700A84201D0012078E71A
:101EE000207800F00400042807D11448006820F48A
:101EF000E050E168084311490860207800F00800CC
:101F0000082808D10D48006820F46040216940EAA3
:101F1000C1000A49086000F03FF808490968C1F3A8
:101F20000311074A515CC84006490860064800682A
:101F3000FFF784FE00204CE7003C024008380240D6
:101F4000C2630008240000201C0000200148006833
:101F5000704700002400002000B5FFF7F7FF044998
:101F60000968C1F38221034A515CC84000BD0000EA
:101F700008380240D263000800B5FFF7E7FF0449C4
:101F80000968C1F34231034A515CC84000BD0000FA
:101F900008380240D26300082DE9F04700240025EC
:101FA0000026A1462548006800F00C0020B1042856
:101FB00005D008283AD105E0DFF8849039E0DFF851
:101FC000849036E01D48001F006800F03F041B4865
:101FD000001F006800F4800078B11A481749091FF3
:101FE0000968C1F38811A0FB017001462246002355
:101FF0003846FEF741F905460EE011480F49091F22
:102000000968C1F38811A0FB017001462246002334
:102010003846FEF731F905460848001F0068C0F34E
:102020000140401C4600B5FBF6F902E0DFF81090D5
:1020300000BF00BF4846BDE8F087000008380240F6
:102040000024F40040787D01F8B504460CB9012065
:10205000F8BD207800F00100002874D0F94800682D
:1020600000F00C0004280DD0F648006800F00C00C9
:10207000082813D1F348001F006800F48000B0F571
:10208000800F0BD1EF4808380068C0F340400028AB
:1020900059D06068002856D10120D9E700BF606898
:1020A000B0F5803F08D1E7480838006840F4803038
:1020B000E449083908601EE06068B0F5A02F0DD132
:1020C000E0480838006840F48020DE49083908609C
:1020D0000846006840F4803008600CE0D9480838B1
:1020E000006820F48030D749083908600846006845
:1020F00020F48020086000BF606890B1FFF76EFD9B
:10210000054606E0FFF76AFD401B642801D903205D
:102110009EE7CC4808380068C0F340400028F1D062
:1021200011E0FFF75BFD054606E0FFF757FD401B9A
:10213000642801D903208BE7C24808380068C0F33F
:1021400040400028F1D1207800F0020002285FD141
:10215000BC48006800F00C0058B1BA48006800F0B4
:102160000C0008281CD1B748001F006800F480004C
:10217000B0B9B44808380068C0F3400020B1E06846
:10218000012801D0012063E7AE480838006820F03C
:10219000F800216940EAC100AA490839086037E01F
:1021A000E06800B30120A8490860FFF717FD054665
:1021B00006E0FFF713FD401B022801D9032047E783
:1021C000A04808380068C0F340000028F1D09D48BE
:1021D0000838006820F0F800216940EAC1009949F8
:1021E0000839086014E0002097490860FFF7F6FC02
:1021F000054606E0FFF7F2FC401B022801D9032048
:1022000026E7904808380068C0F340000028F1D164
:10221000207800F0080008282CD16069A8B10120BE
:102220008A490860FFF7DAFC054606E0FFF7D6FCAE
:10223000401B022801D903200AE782486C3000685D
:10224000C0F340000028F1D014E000207F4908606E
:10225000FFF7C4FC054606E0FFF7C0FC401B022860
:1022600001D90320F4E677486C300068C0F34000E1
:102270000028F1D1207800F00400042870D1002754
:1022800070483830006800F0805090B900BF0020DE
:1022900000906C483830006840F08050694938310F
:1022A00008600846006800F08050009000BF00BF42
:1022B00001276748006800F48070B0B9644800687E
:1022C00040F4807062490860FFF788FC054606E02C
:1022D000FFF784FC401B022801D90320B8E65C48C4
:1022E000006800F480700028F2D000BFA0680128C8
:1022F00008D154486830006840F001005149683105
:1023000008601DE0A06805280DD14E4868300068BF
:1023100040F004004B49683108600846006840F00E
:10232000010008600CE047486830006820F00100B8
:102330004449683108600846006820F004000860DD
:1023400000BFA068A8B1FFF749FC054609E0FFF708
:1023500045FC401B41F28831884202D9032077E6D0
:1023600026E0384868300068C0F340000028EED00E
:1023700013E0FFF733FC054608E0FFF72FFC401B96
:1023800041F28831884201D9032061E62D48683046
:102390000068C0F340000028EFD1012F07D1294881
:1023A0003830006820F0805026493831086000BF7E
:1023B000A069002845D02348006800F00C000828D8
:1023C0005DD0A069022845D100201F490866FFF7AB
:1023D00005FC054606E0FFF701FC401B022801D979
:1023E000032035E6174808380068C0F3406000282D
:1023F000F1D1D4E907010843616A40EA8111012261
:10240000A06AC2EB500041EA00412C20005D41EA85
:1024100000600C49091F086001200B490866FFF79E
:10242000DDFB054606E0FFF7D9FB401B022801D97A
:1024300003200DE6034808380068C0F34060002818
:10244000F1D049E00838024000004742800E474280
:1024500000700040002021490866FFF7BFFB0546D9
:1024600006E0FFF7BBFB401B022801D90320EFE584
:102470001B480068C0F340600028F2D12CE0A0693E
:10248000012800D1E4E51648001D0668A06901286E
:1024900020D006F48001E06981421BD106F03F01A3
:1024A000206A814216D147F6C0703040616AB0EBB5
:1024B000811F0FD106F440310122A06AC2EB500007
:1024C000B1EB004F06D106F070612C20005DB1EB3E
:1024D000006F01D00120BBE50020B9E500004742B4
:1024E0000038024070B504462546681EB0F1807F72
:1024F00001D301200FE0681E4FF0E02148610F2159
:102500004FF0FF3002F034FB00204FF0E0218861F3
:1025100007200861002070BD10B50346002200BFEF
:1025200093F83C00012801D1022010BD012083F85E
:102530003C0000BF22F0FF00CC6840EA040222F415
:1025400040708C6840EA040222F480604C6840EAE3
:10255000040222F400600C6840EA040222F4805075
:102560000C6940EA040222F400504C6940EA04027B
:1025700022F48040CC6940EA04021868426400BF3B
:10258000002083F83C0000BF00BFCEE730B5024614
:102590000B4600BF92F83C00012801D1022030BD5B
:1025A000012082F83C0000BF022082F83D00106844
:1025B00044681068816824F0700418680443106847
:1025C0004460184D1068A8421BD01068B0F1804FCD
:1025D00017D0154D1068A84213D0144D1068A842AA
:1025E0000FD0134D1068A8420BD0124D1068A842AE
:1025F00007D0114D1068A84203D0104D1068A842B2
:1026000005D121F0800158680143106881600120E4
:1026100082F83D0000BF002082F83C0000BF00BFF0
:10262000BDE7000000000140000400400008004039
:10263000000C004000040140004001400018004030
:1026400010B504460CB9012010BD94F83D0028B91E
:10265000002084F83C00204600F026F8022084F890
:102660003D00211D206801F0BFFC012084F84600D8
:1026700000BF84F83E0001213F2001554020015554
:102680004120015500BF00BF012084F842004320D3
:102690000155442001554520015500BF012084F813
:1026A0003D000020D0E7000008B51F4A01689142B4
:1026B0000FD100BF002100911C49096841F00101C0
:1026C0001A4A11601146096801F00101009100BF2A
:1026D00029E00168B1F1804F11D100BF00210091C4
:1026E0001249091F096841F00101104A121F1160C7
:1026F0001146096801F00101009100BF13E00C4A86
:10270000016891420FD100BF00210091074909687B
:1027100041F00201054A11601146096801F0020109
:10272000009100BF00BF08BD0000014044380240D6
:1027300000040140014691F83D00012801D001202C
:102740007047022081F83D001A4B086898421BD060
:102750000868B0F1804F17D0174B0868984213D023
:10276000164B086898420FD0154B086898420BD05A
:10277000144B0868984207D0134B0868984203D05E
:10278000124B086898420CD10868806800F0070274
:10279000062A0CD00868006840F001000B68186039
:1027A00005E00868006840F001000B681860002030
:1027B000C6E700000000014000040040000800409F
:1027C000000C00400004014000400140001800409F
:1027D000014600BF0868006A41F21112104050B96A
:1027E0000868006A9210104028B90868006820F054
:1027F00001000A68106000BF012081F83D00002040
:1028000070472DE9F04104460D46002700BF94F8BB
:102810003C00012802D10220BDE8F081012084F8AB
:102820003C0000BF022084F83D002068866826F046
:10283000770626F47F46206886602868502833D0C3
:102840000CDC202850D004DC00284BD0102851D1BB
:1028500049E0302849D040284CD139E060282DD0BB
:10286000702807D0B0F5805F03D0B0F5005F41D18C
:102870000DE041E0D5E902136A68206801F035FCFB
:102880002068866846F077062068866034E0D5E9DF
:1028900002136A68206801F028FC2068806840F410
:1028A00080402168886027E0EA686968206801F054
:1028B0000DFD5021206801F023FC1DE0EA686968E5
:1028C000206801F016FD6021206801F019FC13E07A
:1028D000EA686968206801F0F9FC4021206801F08D
:1028E0000FFC09E000BF00BF00BF2968206801F0AD
:1028F00007FC01E0012700BF00BF012084F83D0074
:1029000000BF002084F83C0000BF384684E7000088
:1029100010B586B00446142101A8FDF7F2FE334934
:10292000206888421DD100BF002000903048006818
:1029300040F001002E4908600846006800F00100E0
:10294000009000BF00BF8815019002200290002077
:10295000039004900120059001A92648FFF736F85E
:1029600042E02068B0F1804F1DD100BF00200090F0
:102970001F48006840F001001D49086008460068D3
:1029800000F00100009000BF00BF20200190022055
:1029900002900020039004900120059001A91548A1
:1029A000FFF714F820E01449206888421CD100BFCA
:1029B000002000900E48006840F004000C490860B8
:1029C0000846006800F00400009000BF00BFC0206F
:1029D00001900220029000200390049003200590B3
:1029E00001A90648FEF7F2FF06B010BD0000014045
:1029F000303802400000024000040140000802405C
:102A00002DE9F04104460D461646002700BF94F814
:102A10003C00012802D10220BDE8F081012084F8A9
:102A20003C0000BF36B1042E1BD0082E31D00C2E36
:102A30005ED145E02946206801F06CFB2068806982
:102A400040F00800216888612068806920F0040057
:102A50002168886120688069296908432168886144
:102A600048E02946206801F08DFB2068806940F429
:102A70000060216888612068806920F48060216896
:102A8000886120688069296940EA0120216888619D
:102A900030E02946206801F0B3FB2068C06940F0AF
:102AA00008002168C8612068C06920F0040021681E
:102AB000C8612068C069296908432168C86119E0B4
:102AC0002946206801F0D8FB2068C06940F4006006
:102AD0002168C8612068C06920F480602168C861ED
:102AE0002068C069296940EA01202168C86101E0C5
:102AF000012700BF00BF00BF002084F83C0000BFDA
:102B0000384689E710B504460CB9012010BD94F889
:102B10003D0028B9002084F83C00204600F025F84C
:102B2000022084F83D00211D206801F05DFA01209B
:102B300084F8460000BF84F83E0001213F20015583
:102B4000402001554120015500BF00BF012084F8FD
:102B5000420043200155442001554520015500BF46
:102B6000012084F83D000020D0E7704770B504468E
:102B70000D4615B994F83E000BE0042D02D13F201C
:102B8000005D06E0082D02D14020005D01E04120FB
:102B9000005D012801D0012070BD1DB9022084F81C
:102BA0003E000EE0042D03D102213F20015508E034
:102BB000082D03D102214020015502E002214120CD
:102BC000015501222946206801F07EFA2349206838
:102BD000884203D022492068884201D1012000E0C8
:102BE000002028B12068406C40F40040216848640F
:102BF0001A49206888421BD02068B0F1804F17D056
:102C000018492068884213D01749206888420FD09D
:102C10001649206888420BD011492068884207D0A5
:102C200013492068884203D01249206888420CD199
:102C30002068806800F00706062E0CD02068006827
:102C400040F001002168086005E02068006840F05D
:102C500001002168086000209EE70000000001409C
:102C6000000401400004004000080040000C004047
:102C7000004001400018004030B504460D460022D7
:102C80002946206801F020FA23492068884203D0B1
:102C900022492068884201D1012000E0002090B143
:102CA00000BF2068006A41F21111084050B9206845
:102CB000006A8910084028B92068406C20F4004060
:102CC0002168486400BF00BF2068006A41F211110A
:102CD000084050B92068006A8910084028B9206867
:102CE000006820F001002168086000BF1DB90120C4
:102CF00084F83E000EE0042D03D101213F20015550
:102D000008E0082D03D101214020015502E00121F6
:102D100041200155002030BD000001400004014069
:102D2000704770472DE9F84F044620680568206811
:102D3000C668206847694FF00009CA4605F00F09C8
:102D4000B9F1000F0AD105F0200038B106F02000DB
:102D500020B1204601F0D7FBBDE8F88FB9F1000F94
:102D60007CD007F0010018B906F49070002875D0E7
:102D700005F0010030B106F4807018B1606C40F0CD
:102D80000100606405F0040030B107F0010018B1E3
:102D9000606C40F00200606405F0020030B107F0A2
:102DA000010018B1606C40F00400606405F0080098
:102DB00048B106F0200010B907F0010018B1606CAE
:102DC00040F008006064606C002846D005F02000E8
:102DD00028B106F0200010B1204601F094FB2068D5
:102DE0004069C0F3801A606C00F0080010B9BAF1B5
:102DF000000F2DD0204601F02DFB2068406900F027
:102E00004000402820D100BF00BF2168143151E8A4
:102E1000001F21F040002168143141E80002002A1F
:102E2000F3D100BFE06B50B17F48E16B0865E06B08
:102E3000FEF7B0FB88B1E06B016D88470DE02046DE
:102E4000FFF76FFF09E009E02046FFF76AFF04E0A3
:102E50002046FFF766FF002060647DE7206B0128B5
:102E600078D105F01000002874D006F0100000287A
:102E7000FAD000BF00200090206800680090206811
:102E80004068009000BF00BF2068406900F040002B
:102E9000402870D1E06B006840681FFA80F8B8F1F4
:102EA000000F58D0A08D404555DDA4F82E80E06B72
:102EB000C069B0F5807F43D000BF00BF21680C31EE
:102EC00051E8001F21F4807021680C3141E80002B4
:102ED000002AF3D100BF00BF00BF2168143151E8C0
:102EE000001F21F001002168143141E80002002A8E
:102EF000F3D100BF00BF00BF2168143151E8001FAB
:102F000021F040002168143141E80002002AF3D189
:102F100000BF202084F842000020206300BF00BFD3
:102F200021680C3151E8001F21F0100021680C319C
:102F300041E80002002AF3D100BFE06BFEF7D4FAAB
:102F400002206063A08DE28D801A81B22046FFF7D7
:102F5000E7FE0EE052E0A08D40450AD1E06BC0696B
:102F6000B0F5807F05D102206063A18D2046FFF778
:102F7000D7FEF1E6FFE7A08DE18D401A1FFA80F839
:102F8000E08DD0B3B8F1000F37D000BF00BF21688B
:102F90000C3151E8001F21F4907021680C3141E898
:102FA0000002002AF3D100BF00BF00BF2168143126
:102FB00051E8001F21F001002168143141E80002AE
:102FC000002AF3D100BF202084F8420000202063B3
:102FD00000BF00BF21680C3151E8001F21F0100034
:102FE00021680C3141E80002002AF3D100BF022021
:102FF000606341462046FFF793FEADE605F0800092
:1030000030B106F0800018B1204601F07DFCA3E647
:1030100005F0400030B106F0400018B1204601F044
:103020004FFA99E600BF97E61B43000810B5044627
:103030000CB9012010BDA06900B100E000BF94F8F8
:10304000410028B9002084F84000204600F02AF80A
:10305000242084F841002068C06820F400502168D2
:10306000C860204601F0CEFA2068006920F4904044
:10307000216808612068406920F02A0021684861C1
:103080002068C06840F400502168C8600020606477
:10309000202084F8410084F842000020606300BFD3
:1030A000C8E7000010B586B00446142101A8FDF75A
:1030B00028FB30492068884259D100BF0020009089
:1030C0002D48006840F480202B49086008460068BD
:1030D00000F48020009000BF00BF00BF00200090DF
:1030E00025481038006840F0020023491039086074
:1030F0000846006800F00200009000BF00BF4FF4D7
:103100004060019002200290002003900320049070
:103110000720059001A91948FEF758FC18481949DD
:1031200008604FF000604860002116488160C1606F
:103130004FF4806101610021416181614FF4807130
:10314000C1614902016200214162FEF757FB08B1EB
:10315000FEF7C7F900BF0B48E063846300BF00229D
:1031600011462720FEF7DEFD2720FEF7C7FD06B03B
:1031700010BD0000004800404038024000040240FA
:10318000286002407C01002070B504460D461646BA
:1031900094F8420020280BD105B10EB9012070BD72
:1031A0000020206332462946204601F041FBF6E725
:1031B0000220F4E770477047F8B5074644480068B6
:1031C000874200D0F8BD42480068C06B0068406884
:1031D000C0F5807085B200BF002000903C480068B8
:1031E0000068006800903A480068006840680090F5
:1031F00000BF00BF37480088854200D1E2E760E0A9
:10320000354834490988465C32490988481CC11749
:1032100000EB11610912A0EB01212E4A11800A2E48
:1032200041D12E490978481CC11700EB11710911D1
:10323000A0EB0111CCB22A48007800281FDD002045
:103240002849274A1278885427480078844226D093
:103250002649224A127801EB82103F222149FDF7CC
:1032600077FA002021491D4A127801EB821181F87A
:103270003F001A48047001201D4908700FE01A48E9
:10328000007884420BD000211848144A127800EBD1
:103290008210017011480470012015490870002047
:1032A0000F4908700CE00D2E0AD00D4800783F2819
:1032B00006DA0B490878411C094A117009490E5475
:1032C00000BF04480088A8429AD100BF7AE70000F6
:1032D00044000020480000203C0400204B00002057
:1032E0004E0000208C0900204C0000208C0500209E
:1032F0004D0000202DE9F84F04460E46174699462A
:103300004FF0000A94F84100202850D106B117B9B7
:103310000120BDE8F88F00206064212084F841007E
:10332000FEF75CFC8246A784E784A068B0F5805F66
:1033300004D1206910B90025B04602E035464FF0AF
:1033400000081EE05346002280212046CDF8009060
:1033500001F00AFB20B1202084F841000320D8E7C7
:1033600045B9B8F80000C0F308002168486008F1CA
:10337000020803E02878216848606D1CE08C401E3C
:10338000E084E08C0028DDD1534600224021204615
:10339000CDF8009001F0E8FA20B1202084F8410037
:1033A0000320B6E7202084F841000020B1E7022086
:1033B000AFE7704700BFFEE70148007870470000A4
:1033C0002800002010B50446012C04D0022C06D0A1
:1033D000042C0CD107E00020FDF7E6FD07E00120FA
:1033E000FDF7E2FD03E00220FDF7DEFD00BF00BFB8
:1033F000204600F0E7FB10BD10B5012043490870DE
:103400000720434908600620FEF778FC0720FEF7F6
:1034100075FC0820FEF772FC012208213D48FEF7EA
:10342000D7FB00210120FDF721FD00210220FDF73F
:103430001DFD00210846FDF719FD0A20FEF79EFA42
:103440004FF47A610020FDF7E9FD4FF47A61012025
:10345000FDF7E4FD4FF47A610220FDF7DFFD012165
:103460002C48FEF7ADFB012804D12B490020FDF7C5
:1034700035FD01E000F0EAFC02212648FEF7A0FB42
:10348000012803D12449FDF729FD01E000F0DEFC0D
:1034900004212048FEF794FB012804D11E49022094
:1034A000FDF71CFD01E000F0D1FC02E00120FEF779
:1034B00065FAFDF735FC0028F8D1002210211748E5
:1034C000FEF786FB002220211448FEF781FB002234
:1034D00040211248FEF77CFB002280210F48FEF7B6
:1034E00077FB00200949087001200D49087000226F
:1034F00008210848FEF76CFB0620FEF7E9FB0720D1
:10350000FEF7E6FB0820FEF7E3FB10BD28000020D5
:10351000143C014000080240400D0300000402403A
:103520002900002038B50446104804604FF480722A
:103530000F492046FFF728FE2068C06840F01000C1
:103540002168C86000BF00200090206800680090DB
:1035500020684068009000BF00BFE06B00684068D2
:10356000C0F580700349088038BD00004400002089
:103570003C0400204800002001480078704700000B
:103580004A000020004870473C05002010B51AE0B2
:103590001249134A127801EB821002F089FB10499C
:1035A0000978481CC11700EB11710911A0EB01113A
:1035B0000B4A1170104600780A490978884202D1F6
:1035C0000020094908700848007828B104480078AC
:1035D000044909788842DBD110BD00008C05002029
:1035E0004C0000204B0000204D00002008B50020BA
:1035F0001049087050211048FDF761F80F48006825
:10360000C06B00684068C0F580700D4908800020DC
:103610000C4908700C4908700C4908700C49087076
:103620005320009064230122694604480068FFF794
:1036300061FE08BD4A0000203C0500204400002037
:10364000480000204B0000204C0000204D000020CE
:103650004E00002070B500260121002002F0C4FBBE
:103660000121084602F0C0FB0121022002F0BCFB50
:103670000121032002F0B8FB002423E000212046B2
:1036800002F0B2FB02F08AFB0546FF2D14D00F4872
:1036900000EB8400465D1420FEF770F900BF02F0D5
:1036A0007DFBFF28FBD11420FEF768F9012120469D
:1036B00002F09AFB304670BD0121204602F094FBD7
:1036C000601CC4B2042CD9DB0020F4E7DA630008E4
:1036D00008B500BF002000900A48006840F40010C0
:1036E000084908600846006800F40010009000BF18
:1036F00000BF002211460C20FEF714FB0C20FEF741
:10370000FDFA08BD3038024000B587B0142102A888
:10371000FCF7F7FF00BF002001907248006840F4FA
:103720008040704908600846006800F480400190BD
:1037300000BF00BF00BF002001906A481438006835
:1037400040F020006749143908600846006800F01E
:103750002000019000BF00BF00BF0020019008467C
:10376000006840F0040008600846006800F00400AB
:10377000019000BF00BF00BF002001900846006814
:1037800040F0010008600846006800F00100019068
:1037900000BF00BF00BF002001900846006840F055
:1037A000100008600846006800F01000019000BF9B
:1037B00000BF00BF002001900846006840F00200F2
:1037C00008600846006800F00200019000BF00BFDA
:1037D00000BF002001900846006840F00800086023
:1037E0000846006800F00800019000BF00BF0022FA
:1037F00040F608013C48FEF7EBF900224FF42A415D
:103800003A48FEF7E5F90022F0213948FEF7E0F9E1
:103810004FF418600290002003900120049002A948
:103820003448FEF7D3F8072002904FF404100390B9
:103830000120049002A92C48FEF7C8F80820029045
:103840000120039000200490059002A92648FEF76D
:10385000BDF84FF42A40029001200390049000200C
:10386000059002A92148FEF7B1F84FF400700290CC
:10387000002003900120049002A91F48FEF7A6F83B
:103880004FF4006002900120039002200490002079
:10389000059002A91448FEF799F8F0200290012043
:1038A000039000200490059002A91148FEF78EF8BD
:1038B000002211460620FEF735FA0620FEF71EFA12
:1038C000002211460720FEF72DFA0720FEF716FA10
:1038D000002211460820FEF725FA0820FEF70EFA0E
:1038E00007B000BD4438024000080240001002400A
:1038F0000004024000140240000C024000B595B0E4
:10390000002011901290139014900F9010901C2191
:1039100008A8FCF7F6FE20216846FCF7F2FE2B48CB
:103920002B490860A720486000212948816040F2A7
:10393000E731C16000210161416180218161FEF7B1
:103940007FFE08B1FDF7CDFD4FF48050119011A915
:103950001F48FEF756FF08B1FDF7C3FD1C48FFF7EF
:10396000D1F808B1FDF7BDFD00200F9010900FA910
:103970001748FEF70BFE08B1FDF7B3FD6020089075
:10398000002009900A900B900C900D900E90002250
:1039900008A90F48FFF734F808B1FDF7A2FD002091
:1039A000009001900290039004904FF40050059015
:1039B0000020079069460648FEF7AEFD08B1FDF706
:1039C00090FD0348FEF7A4FF15B000BD00000140C4
:1039D0005C00002000B58DB0002009900A900B908B
:1039E0000C90079008901C216846FCF78AFE4FF067
:1039F000804020490860A720486000211D48816060
:103A000040F2E731C1600021016180218161FEF750
:103A100017FE08B1FDF765FD4FF48050099009A924
:103A20001448FEF7EEFE08B1FDF75BFD1148FFF705
:103A300069F808B1FDF755FD00200790089007A927
:103A40000C48FEF7A3FD08B1FDF74BFD6020009088
:103A50000020019002900490002269460548FEF77C
:103A6000CFFF08B1FDF73DFD0248FEF751FF0DB055
:103A700000BD0000A400002000B595B0002011900A
:103A80001290139014900F9010901C2108A8FCF72E
:103A900038FE20216846FCF734FE2F482F49086085
:103AA000A720486000212D48816040F2E731C160C5
:103AB00000210161416180218161FEF7C1FD08B1F2
:103AC000FDF70FFD4FF48050119011A92348FEF728
:103AD00098FE08B1FDF705FD2048FFF713F808B17F
:103AE000FDF7FFFC00200F9010900FA91B48FEF778
:103AF0004DFD08B1FDF7F5FC60200890002009900D
:103B00000A900B900C900D900E90002208A913487B
:103B1000FEF776FF08B1FDF7E4FC042208A90F4880
:103B2000FEF76EFF08B1FDF7DCFC0020009001906D
:103B30000290039004904FF40050059000200790ED
:103B400069460648FEF7E8FC08B1FDF7CAFC0348E1
:103B5000FEF7DEFE15B000BD00040140EC000020C1
:103B600010B50B480B4908604FF4E1304860002164
:103B700008488160C16001610C21416100218161BF
:103B8000C161FFF753FA08B1FDF7ABFC10BD0000AF
:103B9000004800403401002000BFFEE710B1064B92
:103BA0001B68036011B1054B1B680B6012B1044B1D
:103BB0001B681360704700002C00002030000020BC
:103BC0003400002010B50446FFF7F6FBC8B1012C05
:103BD00004D0022C08D0042C12D10BE0002009499B
:103BE0000860094908600BE000200849086008499E
:103BF000086005E00020074908600749086000BF29
:103C000000BF10BD2C000020380000203000002034
:103C10003C00002034000020400000202DE9FF4F30
:103C200081B08346FDF70AF9FDF77AF818B1012053
:103C300005B0BDE8F08F4F480068ABEB0008B8F165
:103C4000000001DB014600E041420C464A4902986F
:103C50000968A0EB0109B9F1000001DB014600E0B1
:103C600041420D46454903980968A0EB010ABAF1A3
:103C7000000001DB014600E041420E461CB915B9C7
:103C80000EB90220D4E7049808B1049801E04FF47B
:103C9000FA500746B7F5966F01D24FF49667B7F51D
:103CA000FA5F01D94FF4FA571CB139460020FDF7ED
:103CB000B5F91DB139460120FDF7B0F91EB13946FD
:103CC0000220FDF7ABF9002C09DDB8F1000F01DD92
:103CD000012000E0002001460020FDF7C7F8002D7C
:103CE00009DDB9F1000F01DD012000E000200146EF
:103CF0000120FDF7BBF8002E09DDBAF1000F01DD50
:103D0000012000E0002001460220FDF7AFF802206C
:103D1000FDF734FE4DB14FF47A706843B0FBF7F015
:103D2000014600900120FDF7D9F84EB14FF47A70AA
:103D30007043B0FBF7F0014600900220FDF7CEF88B
:103D40004CB14FF47A706043B0FBF7F0014600903D
:103D50000020FDF7C3F814B10948C0F800B015B150
:103D600008490298086016B10749039808600020C6
:103D70005EE700002C00002030000020340000200E
:103D8000380000203C0000204000002070B50446B0
:103D90000D464FF47A6340F2DC52D4E90001FFF79C
:103DA0003DFF00F06DF84FF4FA6340F2A912D4E938
:103DB0000001FFF733FF00F063F80122D10222482F
:103DC000FDF706FFFA20FDF7D9FD4FF47A6340F2C4
:103DD000DC52D4E90001FFF721FF00F051F84FF465
:103DE0007A6340F2DC52D5E90001FFF717FF00F0DB
:103DF00047F84FF4FA634FF4E172D5E90001FFF799
:103E00000DFF00F03DF800224FF400610E48FDF771
:103E1000DFFEFA20FDF7B2FD4FF47A6340F2DC5288
:103E2000D5E90001FFF7FAFE00F02AF84FF47A63B3
:103E300040F2DC52C8210846FFF7F0FE00F020F8FF
:103E4000FFF7DAFA70BD00000008024000200649C2
:103E50000860064908600649086006490860064986
:103E600008600649086070472C00002030000020E0
:103E700034000020380000203C00002040000020DA
:103E800010B504E0FCF78CFF0120FDF777FDFCF78F
:103E900047FF0028F6D10648006806490860064832
:103EA000006806490860064800680649086010BDB9
:103EB000380000202C0000203C00002030000020B2
:103EC000400000203400002000BFFEE770470000E3
:103ED00070B504460D4629462046FEF7CDFE00206B
:103EE0002168086208492068884203D00749206891
:103EF000884205D12068406C20F400402168486465
:103F000000202168486270BD0000014000040140AB
:103F1000704710B5FDF768FE10BD000000B593B006
:103F2000302107A8FCF7EDFB142102A8FCF7E9FB00
:103F300000BF002001902548006840F080502349D0
:103F400008600846006800F08050019000BF00BF84
:103F500000BF002001901E48006840F480401C49CA
:103F600008600846006800F48040019000BF00BF70
:103F70000220079001200A9010200B9002200D9043
:103F800000210E9108210F91A82110910221119179
:103F90000421129107A8FEF757F808B1FDF7A1FA1E
:103FA0000F20029002200390002004904FF4A050B4
:103FB00005904FF480500690052102A8FDF704FFFC
:103FC00008B1FDF78EFA13B000BD00004038024082
:103FD000007000400348006840F470000149086028
:103FE0007047000088ED00E010B502682B4B984246
:103FF0000ED0B0F1804F0BD0294B984208D0294BFE
:10400000984205D0284B984202D0284B984203D1C1
:1040100022F070024B681A43204B984220D0B0F136
:10402000804F1DD01E4B98421AD01E4B984217D07D
:104030001D4B984214D01D4B984211D01C4B9842F6
:104040000ED01C4B98420BD01B4B984208D01B4BF8
:10405000984205D01A4B984202D01A4B984203D18D
:1040600022F44072CB681A4322F080034C6943EA81
:1040700004028B68C3620B688362084B984202D0CB
:104080000A4B984201D10B690363036843F00403B0
:10409000036001234361026010BD00000000014085
:1040A0000004004000080040000C004000040140F3
:1040B0000040014000440140004801400018004019
:1040C000001C00400020004030B501F01F05012415
:1040D00004FA05F3046A9C430462046A01F01F05B4
:1040E00002FA05F52C43046230BD30B50C468168F8
:1040F00021F47F4142EA032525432943816030BDF5
:104100000A46816821F0700142F00703194381607B
:104110007047000030B5026A056A25F001050562A6
:104120004368846924F0700424F003040D682C4370
:1041300022F002028D682A43104DA84200D103E00C
:104140000F4DA84206D100BF22F00802CD682A43D5
:1041500022F00402094DA84202D0094DA84207D11D
:1041600023F4807323F400734D692B438D692B4333
:10417000436084614D684563026230BD00000140C8
:104180000004014030B5026A056A25F01005056299
:104190004368846924F4E04424F440740D6844EADC
:1041A000052422F020028D6842EA0512124DA84231
:1041B00000D103E0114DA84207D100BF22F08002D8
:1041C000CD6842EA051222F040020B4DA84202D00F
:1041D0000A4DA84209D123F4806323F400634D699A
:1041E00043EA85038D6943EA8503436084614D6832
:1041F0008563026230BD0000000001400004014000
:1042000030B5026A056A25F4807505624368C469A1
:1042100024F0700424F003040D682C4322F400728F
:104220008D6842EA0522124DA84200D103E0114DEB
:10423000A84207D100BF22F40062CD6842EA0522FD
:1042400022F480620A4DA84202D00A4DA84209D148
:1042500023F4805323F400534D6943EA05138D6919
:1042600043EA05134360C4614D68C563026230BD13
:10427000000001400004014030B5036A056A25F4DE
:10428000805505624468C26922F4E04222F440721B
:104290000D6842EA052223F400538D6843EA053392
:1042A000084DA84202D0084DA84204D124F480440D
:1042B0004D6944EA85144460C2614D680564036237
:1042C00030BD0000000001400004014030B50B4645
:1042D0001446026A056A25F001050562816921F02C
:1042E000F00141EA041122F00A021A4381610262DC
:1042F00030BD30B50B461446026A056A25F010053C
:104300000562816921F4704141EA043122F0A00282
:1043100042EA03128161026230BD70B50446A56BAA
:104320000020E8852846FEF7FCFC70BD70B5064607
:104330000025B46B20684069C0F3C01594F84100B3
:10434000212805D125B10020E084204600F0C8F8DE
:1043500020684069C0F3801594F84200222805D1F6
:1043600025B10020E085204600F074F8606C40F034
:10437000100060642046FEF7D4FC70BD70B50546A1
:10438000AC6B2868006800F48070002842D1E0859A
:1043900000BF00BF21680C3151E8001F21F480707C
:1043A00021680C3141E80002002AF3D100BF00BFB0
:1043B00000BF2168143151E8001F21F0010021687D
:1043C000143141E80002002AF3D100BF00BF00BF52
:1043D0002168143151E8001F21F040002168143198
:1043E00041E80002002AF3D100BF202084F84200F7
:1043F000206B01280ED100BF00BF21680C3151E8AD
:10440000001F21F0100021680C3141E80002002A51
:10441000F3D100BF00206063206B012804D1A18D7F
:104420002046FEF77DFC02E02046FEF7C3FE70BD8D
:1044300070B50546AC6B01206063206B012805D187
:10444000A08D41082046FEF76BFC02E02046FEF7F7
:10445000B2FE70BD00BF00BF02680C3252E8002FF0
:1044600022F4907102680C3242E80013002BF3D161
:1044700000BF00BF00BF0268143252E8002F22F0D4
:1044800001010268143242E80013002BF3D100BF8F
:10449000016B01290ED100BF00BF02680C3252E847
:1044A000002F22F0100102680C3242E80013002BAA
:1044B000F3D100BF202180F8421000210163704732
:1044C00010B504462068C06820F040002168C8602C
:1044D000202084F841002046FEF76BFF002010BD2D
:1044E00000BF00BF02680C3252E8002F22F0C0016A
:1044F00002680C3242E80013002BF3D100BF2021E8
:1045000080F841107047F8B504460025002694F85D
:104510004200222873D1A068B0F5805F0BD12069DA
:1045200048B9A66A20684068C0F308003080A06AD5
:10453000801CA06214E0A56AA068B0F5805F03D07B
:10454000A06828B9206918B920684068287004E07C
:104550002068406800F07F002870A06A401CA062BC
:10456000E08D401E80B2E085002846D12068C068FA
:1045700020F020002168C8602068C06820F48070A6
:104580002168C8602068406920F001002168486106
:10459000202084F8420000206063206B012826D18F
:1045A0000020206300BF00BF21680C3151E8001FCC
:1045B00021F0100021680C3141E80002002AF3D1FB
:1045C00000BF2068006800F0100010280AD100BF6A
:1045D00000200090206800680090206840680090EB
:1045E00000BF00BFA18D2046FEF79AFB02E02046E7
:1045F000FEF7E0FD0020F8BD01E00020FBE702200F
:10460000F9E700002DE9F84F04462068006920F41E
:104610004050E1680843216808612169A0680843A7
:1046200061690843E169084300902068C06849F265
:104630000C618843009908432168C860206840697C
:1046400020F44070A16908432168486176492068D8
:10465000884203D075492068884203D1FDF78CFC5D
:10466000814602E0FDF778FC8146E069B0F5004F35
:104670006CD102206168A0FB015003461920A9FB00
:10468000007001462A463846FBF7F6FD6421B0FB70
:10469000F1F04FEA001A02206168A0FB01510B46BD
:1046A0001920A9FB00712A463846FBF7E5FD834631
:1046B00002206168A0FB015003461920A9FB00718C
:1046C0002A463846FBF7D8FD6421B0FBF1F000EB39
:1046D000C00101EB0010ABEB8000322101EBC00008
:1046E0006421B0FBF1F000F0F8000AEB400A022070
:1046F0006168A0FB015003461920A9FB0070014628
:104700002A463846FBF7B8FD834602206168A0FBC5
:10471000015003461920A9FB00712A463846FBF7D1
:10472000ABFD6421B0FBF1F000EBC00101EB001028
:10473000ABEB8000322101EBC0006421B0FBF1F053
:1047400000F007005044216888606AE00420616836
:10475000A0FB015003461920A9FB007001462A4620
:104760003846FBF789FD824604206168A0FB0150B2
:1047700003461920A9FB007001462A463846FBF77C
:104780007BFD6421B0FBF1F000EBC00101EB0010F8
:10479000AAEB8000322101EB00106421B0FBF1F0A4
:1047A00000F0F00A04206168A0FB017003461920A4
:1047B000A9FB00513A462846FBF75EFD6421B0FB99
:1047C000F1F00AEB001A04206168A0FB01510B46CE
:1047D0001920A9FB00712A463846FBF74DFD834698
:1047E00004206168A0FB015003461920A9FB00705A
:1047F00001462A463846FBF73FFD6421B0FBF1F045
:1048000000EBC00101EB0010ABEB8000322101EBAB
:1048100000106421B0FBF1F000F00F00504421685B
:104820008860BDE8F88F00000010014000140140CE
:1048300077B581B0044615460298A062A585002090
:104840006064222084F842002C48E16BC8632C4845
:10485000E16B08642B48E16BC8640020E16B0865DC
:1048600002AE32682368191D2B46E06BFDF73CF859
:1048700038B110206064202084F84200012004B088
:1048800070BD00BF00200090206800680090206884
:104890004068009000BF00BF206970B100BF00BF3A
:1048A00021680C3151E8001F41F4807021680C31FF
:1048B00041E80002002AF3D100BF00BF00BF216819
:1048C000143151E8001F41F001002168143141E822
:1048D0000002002AF3D100BF00BF00BF21681431DD
:1048E00051E8001F41F040002168143141E8000206
:1048F000002AF3D100BF0020C1E700007D4300087B
:10490000314400082D430008014691F84100212858
:1049100028D18868B0F5805F0BD1086948B90A6A68
:104920001088C0F308000B685860086A801C086291
:1049300005E00B6A581C086218780B685860C88C30
:10494000401E80B2C88458B90868C06820F0800052
:104950000B68D8600868C06840F040000B68D860F9
:10496000002070470220FCE72DE9F84304460D467D
:1049700017469846089E31E0701C70B3FDF72EF97B
:10498000A0EB0800B04200D816B90320BDE8F883B8
:104990002068C06800F00400F8B1802D1ED0402DC2
:1049A0001CD020680068C0F3C000B0B100BF002078
:1049B000009020680068009020684068009000BF68
:1049C00000BF2046FFF746FD0820606400BF0020BE
:1049D00084F8400000BF0120D8E7FFE720680068A6
:1049E0002840A84201D1012000E00020B842C3D0F5
:1049F0000020CBE708B50D480068006800F0100003
:104A000010280ED100BF0020009008480068006800
:104A10000090064800684068009000BF00BF01F0A9
:104A20000FFA0248FEF77EF908BD000034010020AD
:104A30002DE9FC5F04460D46642D00D264254CF23E
:104A40005030854200D905462068B0F1804F13D020
:104A50003149206888420FD03049206888420BD005
:104A60002F492068884207D02E492068884203D009
:104A70002D492068884201D12C4E00E02C4E2A4658
:104A8000002330461946FBF7F7FB0746884600200F
:104A900001908246814619E009F10100C3170246E0
:104AA00038464146FBF7E8FB8346BBF1000F09D0CF
:104AB000BBF5803F06D2CDF80490ABF101001FFAA0
:104AC00080FA07E009F101001FFA80F94FF6FF7044
:104AD0008145E1DB00BF2068006A00902046FDF7B9
:104AE00077FE01982168886200BF2068C0F82CA07A
:104AF000C4F80CA000BF0020216808622168486249
:104B00000120216848610098216808622046FDF76D
:104B100011FEBDE8FC9F00000004004000080040BA
:104B2000000C0040001000400014004000BD0105D2
:104B3000007A030A00BFFEE74100080218BF042004
:104B40000A0E18BF40F001004FF07F4232EA010127
:104B500008BF40F00200012808BF05207047000090
:104B600002480068C0F30220704700000CED00E02E
:104B700010B5002804DB0A07130E054A135406E09B
:104B80000A07140E034A00F00F031B1FD45410BD74
:104B900000E400E018ED00E010EE100A10B510EE91
:104BA000901A4FF0684202EB40032DED028BB3F1F7
:104BB000654F3CBF02EB4102B2F1654F7CD200BFB2
:104BC000C0F3C753C1F3C7529A1A1B2A09DD10F06C
:104BD000004F14BF9FED6E0A9FED6E0ABDEC028B75
:104BE00010BD12F11A0F1BDA11F0004F09D010F0AE
:104BF000004F0CBF9FED680A9FED680ABDEC028B69
:104C000010BD80EE208A18EE100AFFF795FF0428E9
:104C100008BF00F067FAB0EE480ABDEC028B10BD89
:104C20004200B2EB410F37D910F0004F19BFDFED52
:104C30005C1A9FED5C1ADFED5C1A9FED5C1AB0EE1A
:104C4000602A0A46F1EE400A80F00041B0EE420AC6
:104C500010460A1A5200B2F1807F34D2484010F058
:104C6000004FDFED532A9FED533A1DBFBEEE002AE1
:104C700071EEE21A31EE431AB6EE002A04BF71EE6D
:104C8000A21A31EE031AF0EE402A42EE602A40EEFC
:104C9000020A82EEA02A18E011F0004F04BF9FED37
:104CA000461AF0EE411AD4D010F0004F1CBFDFEDD1
:104CB000431A9FED431A00E026E004BFDFED411ADE
:104CC0009FED411AC5E780EE202A22EE020ADFEDB1
:104CD0003F0ADFED3F2ABDEC028B40EE202ADFEDDC
:104CE0003D0A40EE220ADFED3C2A40EE202ADFEDAD
:104CF0003B0A40EE220A22EE000A00EE201A31EEB4
:104D0000020A30EE210A10BD4FF07F42B2EB400F95
:104D100028BFB2EB410F05D2BDEC028BBDE81040BD
:104D200000F0D5B940EA01035B0008BF41F0FF4144
:104D30000BD0B2EB400F08BFB2EB410F08D120F00F
:104D4000804000EE100A21F0804100EE901A37E713
:104D5000B2EB400F12BF5FEA410240F0FF4001F0AA
:104D600000413FF42DAF4A0092EA40033FF528AFDF
:104D7000002AACBF9FED1A1A9FED1A1A20EE010A05
:104D800060EE810A10EE100A10EE901A18E700008B
:104D9000DB0FC9BFDB0FC93FDB0F4940DB0F49C049
:104DA0000000C9BF22AAFDB90000C93F22AAFD39EF
:104DB0000060ED3EC30ACE3700000000000049C08D
:104DC00022AA7DBA0000494022AA7D3A2DAD65BDD8
:104DD0008FB8D53D0FB511BE61C84C3EA8AAAABE7A
:104DE0000000804F0000802F10EE101A08B5444AD2
:104DF0006846B2EB410F28D94FF0E640B0EB410FC7
:104E000094BF00204FF0FF3000900098002861DB35
:104E100060EE000A10F0010F45D010F0020FDFED38
:104E2000391A9FED391A00EEE11ADFED381A40EE1B
:104E3000811A21EEA01AF0EE400A40EE010A08BFE6
:104E4000F1EE600AB0EE600A08BD314B21F000427D
:104E500093423CD911F0004FDFED2E0A20EE201ACC
:104E6000DFED2D0A19BF31EE601A71EE200A31EE26
:104E7000201A71EE600ABDEEE01A11EE100A9FEDE5
:104E8000271A00F0030000EEC10A9FED251A0090DA
:104E900000EEC10A9FED231A00EEC10A9FED221A0F
:104EA00000EEC10AB1E79FED211A9FED210A10F033
:104EB000020F00EE810A9FED1F1A00EE801AB7EE76
:104EC000000A00EE810A18BFB1EE400A08BD00F0EA
:104ED00011F99AE710EE100A4000B0F17F4F3CBF85
:104EE000B7EE000A08BD07D14FF00100FBF763FCE5
:104EF000BDE8084000F0EEB8BDE8084000F0E4B8B6
:104F0000B61F927E336D4C39DA82083CA0AA2ABEC5
:104F1000490E494683F9223F0000004B0000C93F7B
:104F200000A0FD390020A2331A61342CB93AB2BA7C
:104F3000CA9F2A3DDDFFFFBE00B510EE101A2DED11
:104F4000028B81B0524A6846B2EB410F2ED94FF026
:104F5000E640B0EB410F94BF00204FF0FF300090CF
:104F60000098B0EE408A00286ADB10F0010F4BD0A9
:104F700068EE080A9FED471A9FED470A00EE810A86
:104F80009FED461A10F0020F00EE801AB7EE000AED
:104F900000EE810A02BF01B0BDEC028B00BD00BF74
:104FA00001B0B1EE400ABDEC028B00BD3C4B21F0DC
:104FB0000042934241D911F0004FDFED3A0A20EE52
:104FC000201ADFED390A19BF31EE601A71EE200A9E
:104FD00031EE201A71EE600ABDEEE01A11EE100AF1
:104FE0009FED321A00F0030000EEC10A9FED301A67
:104FF000009000EEC10A9FED2F1A00EEC10A9FED4E
:105000002E1A00EEC10AABE728EE080A9FED2B1A14
:10501000DFED2B0A10F0020F40EE410A9FED291A36
:1050200000EE201A61EE000AB0EE480A08EE200AEF
:10503000B6D101B0BDEC028B00BD00F05BF88FE78C
:1050400018EE100A4000B0F17F4F0DD218EE100A92
:10505000FFF772FD042808BF00F044F8B0EE480ADC
:1050600001B0BDEC028B00BD09D10120FBF7A3FB11
:1050700001B0BDEC028B5DF804EB00F02BB801B081
:10508000B0EE480ABDEC028B5DF804EB00F01CB8F2
:10509000B61F927EB93AB2BACA9F2A3DDDFFFFBE63
:1050A000490E494683F9223F0000004B0000C93FEA
:1050B00000A0FD390020A2331A61342C336D4C3925
:1050C000DA82083CA0AA2ABE30EE000A704730EE11
:1050D000200A7047DFED020A80EEA00A7047000048
:1050E000000000009FED020A20EE000A7047000059
:1050F000000000102DE9F0014FF07F42B2EB410FAC
:105100009FBF4FF0FF310160BDE8F00170474FF0E5
:10511000004242EA0123C1F3C752783A551112F016
:105120001F0C434CCCF120067C44C1F3C752A2F1C2
:1051300078024FEA621204EB820254F8254008BF5D
:10514000D2E9015612D0556804FA0CF425FA06F794
:105150003C43976805FA0CF527FA06F8D26807FA77
:105160000CFCF24045EA08054CEA0206A4FB034C9D
:10517000A5FB0352A6FB03631D449D4234BF0126D9
:1051800000261319334416B1934202D903E0934227
:1051900001D2012200E00022624402F1200C9206BA
:1051A000DC0C42EA443200EE102A5B03DFED210AF8
:1051B000F8EEC01A00EE103A4FEA9C1C11F0004FB6
:1051C000B8EE400AC0F800C020EE201A00EE105AD7
:1051D000DFED190AB8EE400A20EE200A71EE810ACE
:1051E00070EE800A10EE902A02F500626FF30B0257
:1051F00000EE902A70EEE11A31EEC11ADFED101ABE
:1052000030EE411A9FED0D0A20EE800A01EE210AD0
:105210009FED0C1A00EE810A04BFBDE8F001704753
:10522000CCF180510160BDE8F001B1EE400A704759
:1052300050140000000000360000802C22AAFD2936
:10524000DB0FC92F0000C92F10B54FF0FF3000F061
:1052500041F808B10A2010BD012000F03BF810B160
:105260006FF00900F7E70020F5E700000246002094
:105270001BE0104B53F83030143B934214DA0D4BC3
:1052800053F83030143393420EDD0A4B03EBC00366
:105290005B68143B8B4207DA064B03EBC0035B6889
:1052A00014338B4200DD7047401C1328E1DB4FF0C4
:1052B000FF30F8E7EC630008002105E00448405C9B
:1052C00008B900207047491C0929F7DB0120F9E7DC
:1052D000CC09002010B598B00446602214496846F5
:1052E000FBF7BBF900211FE001EB41005DF8200056
:1052F000104A1056A04216D101EB41006A4602EB5B
:10530000800040680B4A1056A0420CD101EB4100CE
:105310006A4602EB80008068064A1056A04202D11D
:10532000012018B010BD491C0829DDDB0020F8E77A
:105330001C650008CC09002090B0FCF761FCFEF76A
:10534000EDFDFEF7E1F9FEF7C3F9FEF795FBFEF779
:1053500007FCFEF7D3FAFEF73DFBFBF7C7FCFD4861
:10536000FDF7E8F9FC48FDF7E5F9FC48FDF7E2F93F
:10537000FB48FEF7D7F8FEF73FF8FBF7B1FF002236
:105380000821F848FCF724FC4FF4FA70FCF7F6FA11
:10539000F1E3F5480078002843D1FEF75BF90446B5
:1053A000002C3DD0072C39D2DFE804F038040B1470
:1053B0001E2731000120EC4908700320EB490870DA
:1053C0002DE00220E8490870E84908700020E8490B
:1053D000087024E00320E44908700220E3490870C3
:1053E0000020E34908701AE00420DF49087000201B
:1053F000E0490870DD49087011E00520DA490870BD
:105400000120DC4908700020D849087007E0062018
:10541000D54908700320D549087000E000BF00BFDF
:1054200000BFD1480078072848D2DFE800F04704E1
:1054300048D7FDFCFB0000240025CC480078C01EA6
:10544000072836D2DFE800F0040A1B1F35352F008D
:10545000FEF7CCF80420C54908702EE0FEF78CF862
:1054600060B1FEF78FF80646C24890F9001030464A
:10547000FBF76CFF0520BD49087000BF1DE006204A
:10548000BA49087019E00EA90920FBF71BFF0CA907
:105490000420FBF717FF0CA90EA8FEF777FC0920E4
:1054A000B249087009E00020AF490870AF490870A0
:1054B00003E00020AD49087000BF00BF58E300259D
:1054C0000026AA480078801E08287AD2DFE800F07B
:1054D00004212C3D8041807AFEF7BCF80446012C63
:1054E0000FDB092C0DDC601EA349A14A127841F89C
:1054F00022009F480078401C9D490870FA20FCF764
:105500003DFA9B480078042802DB03209749087085
:1055100062E0012208219348FCF75AFBFEF766F887
:1055200004209249087057E0FEF726F860B1FEF7B4
:1055300029F804468F4890F900102046FBF706FF33
:1055400005208A49087000BF46E007208749087097
:1055500042E00EA90920FBF7B5FE874908680CA9AF
:10556000FBF7B0FE0CA90EA8FEF710FC0AA90A2052
:10557000FBF7A8FE8049486808A9FBF7A3FE08A925
:105580000AA8FEF703FC06A90E20FBF79BFE7A494A
:10559000886804A9FBF796FE04A906A8FEF7F6FBA7
:1055A00002A90F20FBF78EFE7349C8686946FBF716
:1055B00089FE694602A8FEF7E9FB09206B490870DD
:1055C0000AE005E00020684908706849087003E0B7
:1055D00000206649087000BF00BFC9E26348007838
:1055E000801E08287DD2DFE800F004252B32854498
:1055F000857DFEF72FF80446012C0FDB092C0DDC0E
:10560000601E5E495A4A127841F8220058480078D4
:10561000401C57490870FA20FCF7B0F9544800784C
:10562000042802E03FE272E16AE002DB03204F4916
:10563000087063E0FDF7DAFF04204C4908705DE074
:10564000FDF79AFF10B105204849087056E0FDF7B4
:1056500099FF044694F84E00042806DB2046FBF729
:10566000FFFC07204149087002E009203F4908700B
:1056700044E00EA90920FBF725FE404908680CA963
:10568000FBF720FE0CA90EA8FEF780FB0AA90A2052
:10569000FBF718FE3949486808A9FBF713FE08A96B
:1056A0000AA8FEF773FB06A90E20FBF70BFE334991
:1056B000886804A9FBF706FE04A906A8FEF766FBA6
:1056C00002A90F20FBF7FEFD2C49C8686946FBF7CD
:1056D000F9FD694602A8FEF759FB09202349087025
:1056E0000CE007E0FBF7FCFD00201F4908701F4994
:1056F000087003E000201D49087000BF00BF37E2BA
:105700001A4800780A2879D2DFE800F0058CFB946B
:105710009FFB42FBB0F5FDF79DFF0446012C18DB13
:10572000092C16DC601E16490860012208210D486C
:10573000FCF74EFAFBF7D4FD09211248FAF7E1FF16
:105740000920114908600120104908700620074906
:105750000870DAE05C000020A4000020EC000020CB
:105760003401002000080240000000200100002059
:105770000200002004000020DC030020EC030020D5
:10578000080000205000002010000020030000202E
:10579000F948007828B1F94804680020F6490870F3
:1057A00002E0FBF769FD0446601CF0B10EA9F44865
:1057B0000068FBF787FD0CA92046FBF783FD0CA9C9
:1057C0000EA8FEF7E3FA00220821EE48FCF700FAE3
:1057D000FF20ED490855EA4800680D2804DAE8483A
:1057E0000068401CE649086000BF4FF0FF30FFF73B
:1057F00071FD20B10920E549087086E081E0FFF7DE
:105800005BFD18B10920E14908707EE0E049DE48FF
:1058100002680A6042684A60007A08720120DB4927
:10582000087072E0FDF716FF102802D10320D74957
:1058300008706AE001220821D248FCF7C9F9FDF797
:10584000D5FE0420D14908705FE0FDF795FE60B1F8
:10585000FDF798FE0446CF4890F900102046FBF76C
:1058600075FD0820C949087000BF4EE00121C848F5
:10587000FBF74CFDB0B1C649C34802680A604268F4
:105880004A60007A08720120FFF724FD10B9FFF783
:1058900013FD18B10920BD4908702AE00620BB4954
:1058A000087026E0BA48FBF7C1FC0446B848FBF78D
:1058B000D1FC0546601CC0B1681CB0B10EA92846D9
:1058C000FBF700FD0CA92046FBF7FCFC0CA90EA879
:1058D000FEF75CFA00220821AA48FCF779F91322A6
:1058E000AB49A948FAF774FE00BF0120A749087028
:1058F00000BF0AE0FFE70020A7490870A34908702D
:1059000003E00020A149087000BF00BF30E19F48BC
:1059100000780A287ED2DFE800F00515C01D28C0F7
:105920007EC039BAFBF7DCFC09219948FAF7E9FE99
:105930000E209A49086001208F490870032093497E
:105940000870AEE0FDF786FE102802D103208F49D3
:105950000870A6E0012208218A48FCF739F9FDF712
:1059600045FE0420894908709BE0FDF705FE60B103
:10597000FDF708FE0446874890F900102046FBF723
:10598000E5FC08208149087000BF8AE001218048B9
:10599000FBF7BCFCB0B17E487B490A6802604A68EC
:1059A0004260097A01720120FFF794FC10B9FFF7F9
:1059B00083FC18B10920754908702AE00620734954
:1059C000087026E07248FBF731FC04467048FBF78C
:1059D00041FC0546601CC0B1681CB0B10EA9284648
:1059E000FBF770FC0CA92046FBF76CFC0CA90EA879
:1059F000FEF7CCF9002208216248FCF7E9F81322EF
:105A000063496148FAF7E4FD00BF01205F4908706F
:105A100000BF46E041E0FBF72FFC0446601CF0B1FC
:105A20000EA95E480068FBF74DFC0CA92046FBF769
:105A300049FC0CA90EA8FEF7A9F90022082151483B
:105A4000FCF7C6F8FF205049085554480068122852
:105A500004DA52480068401C5049086000BF4FF00B
:105A6000FF30FFF737FC10B9FFF726FC18B109200B
:105A70004649087015E0464843490A6802604A688A
:105A80004260097A017201204049087009E0002053
:105A9000414908703D49087003E000203B49087007
:105AA00000BF00BF64E039480078032806D004280E
:105AB0000AD0072817D0092854D14DE0FDF796FDEC
:105AC00004203249087051E0FDF756FD50B1FDF752
:105AD00059FD044600212046FBF738FC07202B49DE
